:020000040800F2
:1000000000000220C13F0008B51B0008B71B000814
:10001000B91B0008BB1B0008BD1B00080000000046
:10002000000000000000000000000000BF1B0008EE
:10003000C11B000800000000C31B0008C51B00080E
:10004000114000081140000811400008114000084C
:10005000114000081140000811400008114000083C
:10006000114000081140000811400008114000082C
:10007000114000081140000811400008114000081C
:10008000CD1B0008DD1B00081140000811400008CE
:1000900011400008114000081140000811400008FC
:1000A00011400008114000081140000811400008EC
:1000B00011400008114000081140000811400008DC
:1000C00011400008114000081140000811400008CC
:1000D0001140000811400008ED1B00081140000805
:1000E00011400008114000081140000811400008AC
:1000F000114000081140000811400008114000089C
:10010000114000081140000879BA000811400008A9
:10011000114000081140000811400008114000087B
:10012000114000081140000811400008114000086B
:10013000114000080000000000000000114000080D
:10014000114000081140000811400008114000084B
:10015000114000081140000811400008114000083B
:10016000114000081140000811400008114000082B
:100170001140000811400008114000080000000074
:100180000000000011400008000000000000000016
:1001900011400008000000000000000011400008AD
:1001A00000000000000000000000000011400008F6
:1001B00011400008114000081140000811400008DB
:0401C00011400008E2
:1001D00081F0004102E000BF83F0004330B54FEAF8
:1001E00041044FEA430594EA050F08BF90EA020F65
:1001F0001FBF54EA000C55EA020C7FEA645C7FEAF8
:10020000655C00F0E2804FEA5454D4EB5555B8BF1A
:100210006D420CDD2C4480EA020281EA030382EA8B
:10022000000083EA010180EA020281EA0303362D1D
:1002300088BF30BD11F0004F4FEA01314FF4801CF0
:100240004CEA113102D0404261EB410113F0004F02
:100250004FEA03334CEA133302D0524263EB4303B9
:1002600094EA050F00F0A780A4F10104D5F1200E57
:100270000DDB02FA0EFC22FA05F2801841F10001B2
:1002800003FA0EF2801843FA05F359410EE0A5F186
:1002900020050EF1200E012A03FA0EFC28BF4CF0B7
:1002A000020C43FA05F3C01851EBE37101F000456D
:1002B00007D54FF0000EDCF1000C7EEB00006EEB7A
:1002C0000101B1F5801F1BD3B1F5001F0CD3490804
:1002D0005FEA30004FEA3C0C04F101044FEA44525B
:1002E00012F5800F80F09A80BCF1004F08BF5FEAE2
:1002F000500C50F1000041EB045141EA050130BDC2
:100300005FEA4C0C404141EB0101013C28BFB1F5D3
:10031000801FE9D291F0000F04BF01460020B1FA1E
:1003200081F308BF2033A3F10B03B3F120020CDAF1
:100330000C3208DD02F1140CC2F10C0201FA0CF0CF
:1003400021FA02F10CE002F11402D8BFC2F1200C34
:1003500001FA02F120FA0CFCDCBF41EA0C019040EA
:10036000E41AA2BF01EB0451294330BD6FEA040433
:100370001F3C1CDA0C340EDC04F11404C4F120021E
:1003800020FA04F001FA02F340EA030021FA04F330
:1003900045EA030130BDC4F10C04C4F1200220FA87
:1003A00002F001FA04F340EA0300294630BD21FAC5
:1003B00004F0294630BD94F0000F83F4801306BF8B
:1003C00081F480110134013D4EE77FEA645C18BF7F
:1003D0007FEA655C29D094EA050F08BF90EA020F16
:1003E00005D054EA000C04BF1946104630BD91EA0E
:1003F000030F1EBF0021002030BD5FEA545C05D111
:100400004000494128BF41F0004130BD14F580044F
:100410003CBF01F5801130BD01F0004545F0FE41C3
:1004200041F470014FF0000030BD7FEA645C1ABFF8
:10043000194610467FEA655C1CBF0B46024650EA2F
:10044000013406BF52EA033591EA030F41F400215B
:1004500030BD00BF90F0000F04BF0021704730B5E1
:100460004FF4806404F132044FF000054FF00001B6
:1004700050E700BF90F0000F04BF0021704730B577
:100480004FF4806404F1320410F0004548BF40424C
:100490004FF000013EE700BF42004FEAE2014FEAA1
:1004A00031014FEA02701FBF12F07F4393F07F4F7C
:1004B00081F06051704732F07F4208BF704793F07F
:1004C0007F4F04BF41F40021704730B54FF4607492
:1004D00001F0004521F000411CE700BF50EA010295
:1004E00008BF704730B54FF000050AE050EA01023E
:1004F00008BF704730B511F0004502D5404261EBAE
:1005000041014FF4806404F132045FEA915C3FF4EE
:10051000D8AE4FF003025FEADC0C18BF03325FEA8B
:10052000DC0C18BF033202EBDC02C2F1200300FA3C
:1005300003FC20FA02F001FA03FE40EA0E0021FA61
:1005400002F11444BDE600BF70B54FF0FF0C4CF44F
:10055000E06C1CEA11541DBF1CEA135594EA0C0F01
:1005600095EA0C0F00F0DEF82C4481EA030621EA3C
:100570004C5123EA4C5350EA013518BF52EA033577
:1005800041F4801143F4801338D0A0FB02CE4FF029
:100590000005E1FB02E506F00042E0FB03E54FF059
:1005A0000006E1FB03569CF0000F18BF4EF0010E51
:1005B000A4F1FF04B6F5007F64F5407404D25FEA4D
:1005C0004E0E6D4146EB060642EAC62141EA555100
:1005D0004FEAC52040EA5E504FEACE2EB4F1FD0C42
:1005E00088BFBCF5E06F1ED8BEF1004F08BF5FEAC0
:1005F000500E50F1000041EB045170BD06F0004672
:1006000046EA010140EA020081EA0301B4EB5C041E
:10061000C2BFD4EB0C0541EA045170BD41F4801116
:100620004FF0000E013C00F3AB8014F1360FDEBF3B
:10063000002001F0004170BDC4F10004203C35DA17
:100640000C341BDC04F11404C4F1200500FA05F39A
:1006500020FA04F001FA05F240EA020001F000423B
:1006600021F0004110EBD37021FA04F642EB0601B1
:100670005EEA430E08BF20EAD37070BDC4F10C04DB
:10068000C4F1200500FA04F320FA05F001FA04F29F
:1006900040EA020001F0004110EBD37041F100018B
:1006A0005EEA430E08BF20EAD37070BDC4F1200596
:1006B00000FA05F24EEA020E20FA04F301FA05F2FE
:1006C00043EA020321FA04F001F0004121FA04F2A6
:1006D00020EA020000EBD3705EEA430E08BF20EA76
:1006E000D37070BD94F0000F0FD101F000464000B0
:1006F00041EB010111F4801F08BF013CF7D041EA32
:10070000060195F0000F18BF704703F00046520035
:1007100043EB030313F4801F08BF013DF7D043EA06
:100720000603704794EA0C0F0CEA135518BF95EABC
:100730000C0F0CD050EA410618BF52EA4306D1D143
:1007400081EA030101F000414FF0000070BD50EA62
:10075000410606BF1046194652EA430619D094EAEC
:100760000C0F02D150EA013613D195EA0C0F05D1D6
:1007700052EA03361CBF104619460AD181EA03012A
:1007800001F0004141F0FE4141F470014FF00000E2
:1007900070BD41F0FE4141F4780170BD70B54FF07D
:1007A000FF0C4CF4E06C1CEA11541DBF1CEA1355FD
:1007B00094EA0C0F95EA0C0F00F0A7F8A4EB0504DF
:1007C00081EA030E52EA03354FEA013100F08880D6
:1007D0004FEA03334FF0805545EA131343EA12639F
:1007E0004FEA022245EA111545EA10654FEA002654
:1007F0000EF000419D4208BF964244F1FD0404F50D
:10080000407402D25B084FEA3202B61A65EB030568
:100810005B084FEA32024FF480104FF4002CB6EB25
:10082000020E75EB030E22BFB61A754640EA0C00A5
:100830005B084FEA3202B6EB020E75EB030E22BFE5
:10084000B61A754640EA5C005B084FEA3202B6EB26
:10085000020E75EB030E22BFB61A754640EA9C00E5
:100860005B084FEA3202B6EB020E75EB030E22BFB5
:10087000B61A754640EADC0055EA060E18D04FEA73
:10088000051545EA16754FEA06164FEAC30343EA13
:1008900052734FEAC2025FEA1C1CC0D111F4801FE0
:1008A0000BD141EA00014FF000004FF0004CB6E7D9
:1008B00011F4801F04BF01430020B4F1FD0C88BF78
:1008C000BCF5E06F3FF6AFAEB5EB030C04BFB6EB83
:1008D000020C5FEA500C50F1000041EB045170BD76
:1008E0000EF0004E4EEA113114EB5C04C2BFD4EBA3
:1008F0000C0541EA045170BD41F480114FF0000E27
:10090000013C90E645EA060E8DE60CEA135594EAA2
:100910000C0F08BF95EA0C0F3FF43BAF94EA0C0FA5
:100920000AD150EA01347FF434AF95EA0C0F7FF41A
:1009300025AF104619462CE795EA0C0F06D152EA6E
:1009400003353FF4FDAE1046194622E750EA410652
:1009500018BF52EA43067FF4C5AE50EA41047FF463
:100960000DAF52EA43057FF4EBAE12E74FF0FF3CC8
:1009700006E000BF4FF0010C02E000BF4FF0010C99
:100980004DF804CD4FEA410C7FEA6C5C4FEA430C12
:1009900018BF7FEA6C5C1BD001B050EA410C0CBF61
:1009A00052EA430C91EA030F02BF90EA020F0020C3
:1009B000704710F1000F91EA030F58BF994208BF2A
:1009C00090422CBFD8176FEAE37040F001007047E7
:1009D0004FEA410C7FEA6C5C02D150EA013C07D13E
:1009E0004FEA430C7FEA6C5CD6D152EA033CD3D089
:1009F0005DF8040B704700BF8446104662468C4683
:100A00001946634600E000BF01B5FFF7B7FF0028B5
:100A100048BF10F1000F01BD4DF808EDFFF7F4FFDE
:100A20000CBF012000205DF808FB00BF4DF808ED69
:100A3000FFF7EAFF34BF012000205DF808FB00BF8C
:100A40004DF808EDFFF7E0FF94BF012000205DF8AE
:100A500008FB00BF4DF808EDFFF7CEFF94BF012063
:100A600000205DF808FB00BF4DF808EDFFF7C4FF5C
:100A700034BF012000205DF808FB00BF4FEA4102AF
:100A800012F5001215D211D56FF47873B3EB6252E0
:100A900012D94FEAC12343F0004343EA505311F007
:100AA000004F23FA02F018BF404270474FF0000099
:100AB000704750EA013005D111F0004008BF6FF0D7
:100AC000004070474FF00000704700BF4FEA4102FE
:100AD000B2F1E04324BFB3F5001CDCF1FE5C0DD99C
:100AE00001F0004C4FEAC0024CEA5070B2F1004FE6
:100AF00040EB830008BF20F00100704711F0804FE9
:100B000021D113F13872BCBF01F00040704741F4AD
:100B100080114FEA5252C2F11802C2F1200C10FAB1
:100B20000CF320FA02F018BF40F001004FEAC12395
:100B30004FEAD32303FA0CFC40EA0C0023FA02F339
:100B40004FEA4303CCE77FEA625307D150EA01330F
:100B50001EBF4FF0FE4040F44000704701F00040DF
:100B600040F0FE4040F40000704700BF80F00040BD
:100B700002E000BF81F0004142001FBF5FEA410375
:100B800092EA030F7FEA226C7FEA236C6AD04FEA75
:100B90001262D2EB1363C1BFD218414048404140BA
:100BA000B8BF5B42192B88BF704710F0004F40F46C
:100BB000000020F07F4018BF404211F0004F41F488
:100BC000000121F07F4118BF494292EA030F3FD054
:100BD000A2F1010241FA03FC10EB0C00C3F1200367
:100BE00001FA03F100F0004302D5494260EB4000F6
:100BF000B0F5000F13D3B0F1807F06D340084FEA61
:100C0000310102F10102FE2A51D2B1F1004F40EB55
:100C1000C25008BF20F0010040EA030070474900BD
:100C200040EB0000013A28BFB0F5000FEDD2B0FA5A
:100C300080FCACF1080CB2EB0C0200FA0CF0AABF7D
:100C400000EBC25052421843BCBFD040184370471B
:100C500092F0000F81F4000106BF80F40000013221
:100C6000013BB5E74FEA41037FEA226C18BF7FEAF8
:100C7000236C21D092EA030F04D092F0000F08BF3A
:100C80000846704790EA010F1CBF0020704712F021
:100C90007F4F04D1400028BF40F00040704712F160
:100CA00000723CBF00F50000704700F0004343F0C5
:100CB000FE4040F4000070477FEA226216BF0846FB
:100CC0007FEA23630146420206BF5FEA412390EABE
:100CD000010F40F4800070474FF0000304E000BFB4
:100CE00010F0004348BF40425FEA000C08BF704765
:100CF00043F0964301464FF000001CE050EA010229
:100D000008BF70474FF000030AE000BF50EA01023D
:100D100008BF704711F0004302D5404261EB41012A
:100D20005FEA010C02BF84460146002043F0B6434F
:100D300008BFA3F18053A3F50003BCFA8CF2083A74
:100D4000A3EBC25310DB01FA02FC634400FA02FC7D
:100D5000C2F12002BCF1004F20FA02F243EB020084
:100D600008BF20F00100704702F1200201FA02FCE6
:100D7000C2F1200250EA4C0021FA02F243EB0200D9
:100D800008BF20EADC7070477BB972B90029BEBF8A
:100D900000204FF0004106E008BF00281CBF6FF0A4
:100DA00000414FF0FF3000F057B8ADF1080C6DE98D
:100DB00004CE002909DB002B1ADB0AF0C1FFDDF8A5
:100DC00004E0DDE9022304B07047404261EB4101D9
:100DD000002B1BDB0AF0B4FFDDF804E0DDE90223A1
:100DE00004B0404261EB4101524263EB4303704760
:100DF000524263EB43030AF0A3FFDDF804E0DDE9B0
:100E0000022304B0404261EB41017047524263EB60
:100E100043030AF095FFDDF804E0DDE9022304B0A6
:100E2000524263EB4303704753B94AB9002908BFE4
:100E300000281CBF4FF0FF314FF0FF3000F00CB81E
:100E4000ADF1080C6DE904CE0AF07AFFDDF804E09C
:100E5000DDE9022304B07047704700BF10F8012B92
:100E600011F8013B012A28BF9A42F7D0D01A7047E7
:100E700001F0FF01102A2BDB10F0070F08D010F84B
:100E8000013B013A8B422DD010F0070F42B3F6D14F
:100E9000F0B441EA012141EA014122F007047FF068
:100EA00000070023F0E80256083C85EA010586EABF
:100EB000010685FA47F5A3FA87F586FA47F6A5FAFB
:100EC00087F68EB9EED1F0BC01F0FF0102F0070207
:100ED00032B110F8013B013A83EA010313B1F8D1B2
:100EE0000020704701387047002D06BF3546033893
:100EF000073815F0010F07D1013015F4807F02BFCC
:100F0000013015F4C03F0130F0BC0138704700BF1C
:100F1000034613F8012B002AFBD1181A0138704739
:100F20000348044B834202D0034B03B11847704778
:100F3000EC000020EC000020000000000548064BFB
:100F40001B1AD90F01EBA301491002D0034B03B1C7
:100F500018477047EC000020EC0000200000000063
:100F600010B5064C237843B9FFF7DAFF044B13B1F1
:100F70000448AFF300800123237010BDF00000206F
:100F800000000000DCD1000808B5054B1BB1054985
:100F90000548AFF30080BDE80840FFF7CFBF00BFB2
:100FA00000000000F4000020DCD1000808B5064B6A
:100FB000044613B100210BF083FE044B1B6803B100
:100FC000984720460CF008F9C1CC000844020020E4
:100FD000002310B50446C0E90033C0E90433836040
:100FE00081814366C2818361194608225C3000F02A
:100FF000B1F80D4B63620D4BA3620D4BE3620D4BD9
:1010000023630D4B24629C4206D003F16802944294
:1010100002D0D0339C4205D104F15800BDE8104005
:1010200000F0C4B810BD00BF91140008B31400084C
:10103000EB1400080F1500080C010020024A0349B8
:10104000034800F069B800BF000000200114000848
:101050001000002041680C4B994210B5044601D0A5
:1010600000F0CEF9A168094B994202D0204600F069
:10107000C7F9E168064B994204D02046BDE810400C
:1010800000F0BEB910BD00BF0C01002074010020AB
:10109000DC01002010B50B4B0B4C0C4A1A602046AB
:1010A00000220421FFF794FF04F1680001220921C6
:1010B000FFF78EFF04F1D0000222BDE8104012219C
:1010C000FFF786BF440200200C0100203D100008FD
:1010D000014800F06CB800BF4A020020014800F04F
:1010E00067B800BF4A02002010B50446FFF7F0FFC2
:1010F000236A1BB1BDE81040FFF7F0BF044B236229
:10110000044B1B68002BF5D1FFF7C4FFF2E700BFCB
:1011100055100008440200202DE9F8430746884690
:1011200014460026D4E90195B9F1010905D52468D2
:10113000002CF7D13046BDE8F883AB89012B07D9E5
:10114000B5F90E30013303D029463846C04706436F
:101150006835E9E702440346934200D1704703F83B
:10116000011BF9E770B50D4D0D4C641BA410002652
:10117000A64209D10B4D0C4C0CF030F8641BA410A6
:101180000026A64205D170BD55F8043B98470136AC
:10119000EEE755F8043B98470136F2E770DD0008AA
:1011A00070DD000870DD000874DD000870477047CE
:1011B0007047000070B50F4E0C463168054611B9F6
:1011C00000F0CEF930602146284600F0C9F9431CF2
:1011D00003D14FF0FF34204670BDC41C24F003043B
:1011E000A042F8D0211A284600F0BAF90130F2D115
:1011F000EFE700BF4C0200202DE9F843CD1C25F09D
:10120000030508350C2D38BF0C25002D064601DBE3
:10121000A94204D90C2333600020BDE8F883DFF82D
:10122000D48000F029F9D8F800301C4644BB294688
:101230003046FFF7BFFF431C044658D1D8F80040A2
:101240002746002F43D1002C4BD023683946304627
:1012500004EB030900F084F9814542D121686D1A3D
:1012600029463046FFF7A6FF01303AD023682B44C9
:101270002360D8F800305A6862BBC8F800700FE0ED
:101280002268521B20D40B2A17D96119A34225606A
:1012900018BF5960636808BFC8F8001062514B60FE
:1012A000304600F0EFF804F10B00231D20F007009A
:1012B000C21A1CBF1B1AA350AFE76268A3420CBF3F
:1012C000C8F800205A60EBE723466468AEE73C4666
:1012D0007F68B6E71A465B68A342FBD100235360E0
:1012E000DEE70C233360304600F0CCF894E705606D
:1012F000D6E700BF50020020B1F90C202DE9F041E3
:10130000160705460C4654D44B68002B02DC0B6CC8
:10131000002B48DDE66A002E45D0002312F48052EF
:101320002F68216A2B6030D0626DA389590705D5DB
:101330006368D21A636B0BB1236CD21A0023E66A7E
:10134000216A2846B047431CA38906D129681D2974
:101350002BD82A4ACA40D60727D500226260D90472
:101360002269226004D5421C01D12B6803B9606553
:10137000616B2F60B9B104F14403994202D0284651
:1013800000F020F9002363630DE001232846B047F5
:101390000246501CC9D12B68002BC6D01D2B01D092
:1013A000162B1ED12F60002022E043F040031BB219
:1013B0001BE00F69002FF6D093070E6808BF4B693A
:1013C0000F6018BF0023A6EB07088B60B8F1000F71
:1013D000E9DD216AA66A43463A462846B047002816
:1013E00008DCB4F90C3043F04003A3814FF0FF3028
:1013F000BDE8F0810744A8EB0008E7E701004020C2
:1014000038B50B6905460C4613B90025284638BD8A
:1014100018B1036A0BB9FFF767FEB4F90C30002B63
:10142000F3D0626ED00704D4990502D4A06DFFF703
:10143000BEFE28462146FFF75FFF636EDA070546CA
:10144000E4D4A3899B05E1D4A06DFFF7B1FEDDE7ED
:10145000014620B9044A05490548FFF75DBE054B22
:101460001868FFF7CDBF00BF00000020011400087E
:10147000100000200C0000200148FFF798BE00BFBC
:10148000480200200148FFF793BE00BF4802002039
:1014900010B50C46B1F90E1000F050F80028ABBFA3
:1014A000636DA3891B1823F48053ACBF6365A381CC
:1014B00010BD2DE9F0411F468B89DB0505460C4622
:1014C000164605D5B1F90E100223002200F024F8CB
:1014D000A389B4F90E1023F48053A38132463B460E
:1014E0002846BDE8F04100F04BB810B50C46B1F904
:1014F0000E1000F011F8431CA38915BF606523F49A
:10150000805343F48053A38118BFA38110BDB1F968
:101510000E1000F047B8000038B5074D04460846E5
:10152000114600222A601A460BF038FE431C02D1F5
:101530002B6803B1236038BD5402002038B5074D35
:1015400004460846114600222A601A460BF02EFE79
:10155000431C02D12B6803B1236038BD5402002024
:1015600038B5064D0023044608462B600BF026FED6
:10157000431C02D12B6803B1236038BD5402002004
:1015800038B5074D04460846114600222A601A461F
:1015900000F07CF8431C02D12B6803B1236038BDF6
:1015A0005402002038B5064D0023044608462B603F
:1015B0000BF0DCFD431C02D12B6803B1236038BD66
:1015C0005402002038B50546002941D051F8043CAA
:1015D0000C1F002BB8BFE418FFF74EFF1D4A13681D
:1015E00033B9636014602846BDE83840FFF74ABF4E
:1015F000A34208D9206821188B4201BF19685B6893
:1016000009182160EDE71A465B680BB1A342FAD9CD
:1016100011685018A0420BD1206801445018834231
:101620001160E0D118685B68536008441060DAE725
:1016300002D90C232B60D6E7206821188B4204BF07
:1016400019685B68636004BF091821605460CAE7C9
:1016500038BD00BF5002002008B50A480A4B03609D
:101660004FF46133436000238360C36003610C2245
:1016700042618361C36102F0D6F908B172B6FEE738
:1016800008BD00BF580200200044004010B51446B9
:101690004FF0FF3392B2024802F0F5F9204610BD38
:1016A0005802002000B595B03422002107A8FFF7AA
:1016B00051FD002302930393049305930693009333
:1016C0001A4A116C41F080511164126C02F0805280
:1016D0000092009A019316490A6822F4404242F4AB
:1016E00080420A600A6802F440420192019A022292
:1016F000079201220A9210220B920D9307A801F083
:1017000087FA68B90F230293002103910491059190
:10171000069102A801F012F928B915B05DF804FB92
:101720000AF06EFAEEE70AF06BFAF6E700380240CC
:101730000070004008B5FFF78FFFFFF7B3FF0348C5
:101740000BF0B8F905F04AF908BD00BF48D200080F
:1017500082B0002100910B4B5A6C42F480425A64D3
:101760005A6C02F480420092009A01911A6C42F085
:1017700080521A641B6C03F080530193019B02B0EA
:10178000704700BF0038024000B589B000230393C2
:101790000493059306930793026803F1804303F5CE
:1017A00090339A4202D009B05DF804FB0021019108
:1017B00003F58C335A6C42F480725A645A6C02F40A
:1017C00080720192019A02911A6B42F004021A632C
:1017D0001B6B03F004030293029B10230393032368
:1017E000049303A9014800F0ABFFDCE700080240C6
:1017F0000368B3F1804F00D0704782B0002301939B
:10180000054B1A6C42F001021A641B6C03F00103D1
:101810000193019B02B070470038024084B0036816
:10182000184A934207D0184A934211D0174A93425C
:101830001BD004B0704700230193154B1A6C42F083
:1018400002021A641B6C03F002030193019BF0E790
:10185000002302930E4B5A6C42F002025A645B6CF6
:1018600003F002030293029BE3E700230393084B78
:101870001A6C42F480721A641B6C03F48073039335
:10188000039BD6E700040040000401400020004014
:101890000038024000B58BB00023059306930793F0
:1018A000089309930368B3F1804F0BD0334A9342F6
:1018B00020D0334A934233D0324A934247D00BB0C0
:1018C0005DF804FB002301932F4B1A6B42F00202D8
:1018D0001A631B6B03F002030193019B4FF48063B7
:1018E0000593022306930123099305A9274800F0D5
:1018F00027FFE4E700230293234B1A6B42F0020216
:101900001A631B6B03F002030293029B30230593BF
:1019100002230693099305A91C4800F011FFCEE7A6
:1019200000230393184B1A6B42F004021A631B6BDB
:1019300003F004030393039B4023059302230693C0
:101940000323099305A9124800F0FAFEB7E7002324
:1019500004930D4B1A6B42F001021A631B6B03F0E8
:1019600001030493049B8023059302230693092318
:10197000099305A9074800F0E3FEA0E70004004032
:1019800000040140002000400038024000040240F2
:101990000008024000000240F0B58FB00023099318
:1019A0000A930B930C930D930368764A93420CD0E1
:1019B0000446754A93422AD0744A93425FD0744ACF
:1019C000934200F0BB800FB0F0BD00210091714B3D
:1019D0001A6C42F400221A641A6C02F4002200927B
:1019E000009A01911A6B42F001021A631B6B03F01B
:1019F00001030193019B0323099302220A920C9392
:101A000008230D9309A9644800F09AFEDBE700243F
:101A10000294604B5A6C42F010025A645A6C02F005
:101A200010020292029A03941A6B42F001021A63A6
:101A30001A6B02F001020392039A04941A6B42F0AB
:101A400002021A631B6B03F002030493049B4FF41E
:101A50008063099302270A9703260C9607250D95A4
:101A600009A94D4800F06CFE402309930A970B9496
:101A70000C960D9509A9494800F062FEA3E70025E0
:101A80000595444B1A6C42F400321A641A6C02F445
:101A900000320592059A06951A6B42F001021A630C
:101AA0001B6B03F001030693069B0C23099302238F
:101AB0000A9303230C9307230D9309A9364800F0DA
:101AC0003FFE3748374B03604FF00063436085604B
:101AD000C5604FF48063036145618561C56105623E
:101AE000456200F07BFC18BB2D4BE3639C632E48E2
:101AF0002E4B03604FF0006343604023836000235C
:101B0000C3604FF48062026143618361C361036219
:101B1000436200F063FC70B9234BA3639C63002213
:101B20001146262000F0CCFB262000F0D9FB4AE726
:101B30000AF066F8D8E70AF063F8EDE700210791AC
:101B4000144B1A6C42F480221A641A6C02F480223C
:101B50000792079A08911A6B42F004021A631B6BF2
:101B600003F004030893089B4FF440630993022396
:101B70000A9303230C9307230D9309A90C4800F043
:101B8000DFFD20E7004C0040001001400044004011
:101B900000480040003802400000024000040240BB
:101BA0000003002088600240A0020020A0600240E4
:101BB00000080240FEE7FEE7FEE7FEE7FEE77047AB
:101BC0007047704708B500F063F808BD08B50248D3
:101BD00000F0C8FC08BD00BF0003002008B50248A3
:101BE00000F0C0FC08BD00BFA002002008B50248FC
:101BF00002F0A4F808BD00BF58020020034AD2F842
:101C0000883043F47003C2F88830704700ED00E07C
:101C100010B504460E4B1A784FF47A73B3FBF2F307
:101C20000C4A1068B0FBF3F000F05EFB68B90F2CB3
:101C300001D901200AE0002221464FF0FF3000F0D8
:101C40003FFB054B1C60002000E0012010BD00BFE1
:101C5000600000205C0000206400002008B50B4BF1
:101C60001A6842F400721A601A6842F480621A60BC
:101C70001A6842F480721A60032000F00FFB0F20F4
:101C8000FFF7C6FFFFF764FD002008BD003C0240DF
:101C9000034A1168034B1B780B441360704700BF65
:101CA0006003002060000020014B1868704700BFEF
:101CB0006003002038B50446FFF7F6FF0546B4F18F
:101CC000FF3F02D0044B1B781C44FFF7EDFF401B85
:101CD000A042FAD338BD00BF600000204A4B5A68CA
:101CE00022F440325A605A6841680A435A600268D6
:101CF000536823F48073536002685368016943EAB0
:101D0000012353600268536823F0407353600268F4
:101D1000536881680B4353600268936823F400633F
:101D2000936002689368C1680B439360826A374B83
:101D30009A4257D00268936823F0706393600268F8
:101D40009368816A0B4393600268936823F0405361
:101D5000936002689368C16A0B439360026893685A
:101D600023F00203936002689368017E43EA410313
:101D7000936090F82030002B3FD00268536843F402
:101D8000006353600268536823F460435360016842
:101D90004B68426A013A43EA42334B600268D36AB5
:101DA00023F47003D3620168CB6AC269013A43EA43
:101DB0000253CB620268936823F400739360026855
:101DC000936890F8301043EA412393600268936867
:101DD00023F48063936002689368416943EA812336
:101DE000936070470268936823F0706393600268A1
:101DF000936823F040539360B0E70268536823F47C
:101E000000635360CAE700BF002301400100000FD8
:101E100038B310B50446036C43B1236C13F0100FB4
:101E20000BD00120002384F83C3010BDFFF7ACFC40
:101E30000023636484F83C30EFE7236C23F4885379
:101E400023F0020343F0020323642046FFF746FF1A
:101E500000206064236C23F0030343F00103236438
:101E6000E0E701207047000082B00023019390F862
:101E70003C30012B00F08980012380F83C3003685E
:101E80009A6812F0010F13D19A6842F001029A6029
:101E9000414B1B68414AA2FB03239B0C03EB43030A
:101EA000019302E0019B013B0193019B002BF9D1BF
:101EB0000268936813F0010F5CD0036C23F4E063B5
:101EC00023F0010343F480730364536813F4806FB9
:101ED00005D0036C23F4405343F480530364036C34
:101EE00013F4805F1BD0436C23F00603436400238C
:101EF00080F83C306FF022031360294B5B6813F0CD
:101F00001F0F27D10368274A934211D002F5807230
:101F1000934207D0244A934214D0002033E0002398
:101F20004364E4E702F50072526812F01F0FF1D12A
:101F30009A6812F0405F2AD19A6842F080429A6013
:101F4000002020E002F58072526812F0100FEFD0EE
:101F5000002018E00368134A934201D0002012E0E9
:101F60009A6812F0405F14D19A6842F080429A60F9
:101F7000002008E0036C43F010030364436C43F05B
:101F800001034364002002B070470220FBE70020F9
:101F9000F9E70020F7E700BF5C00002083DE1B4369
:101FA00000230140002001400022014070B504469A
:101FB0000D4603689A6812F4806F03D09B6813F48F
:101FC000807F19D1FFF770FE064623681A6812F069
:101FD000020F20D1B5F1FF3FF7D0B5B923681B68D8
:101FE00013F0020FF1D1236C43F0040323640023A8
:101FF00084F83C30032032E0036C43F02003036498
:10200000002380F83C30012029E0FFF74DFE801BC3
:10201000A842DAD9E2E76FF012021A60236C43F4A7
:102020000073236423689A6812F0405F16D1207E03
:10203000B0B9DA6A12F4700F03D09B6813F4806FA2
:102040000DD1236C23F480732364236C13F4805F1D
:1020500005D1236C43F00103236400E0002070BD30
:102060000020FCE70368D86C7047000030B482B0F1
:102070000022019290F83C20012A00F0C080034623
:10208000012280F83C200A68092A40D90468E068E7
:1020900092B202EB42021E3A4FF0070C0CFA02F227
:1020A00020EA0202E2601C68E0680A8802EB420251
:1020B0001E3A8D6805FA02F20243E2604A68062A77
:1020C0003CD81C68606B02EB8202053A4FF01F0C93
:1020D0000CFA02F220EA020262631C68606B4A6832
:1020E00002EB8202053AB1F800C00CFA02F2024398
:1020F00062631868434A904250D01868414A90423F
:1021000059D0002083F83C0002B030BC704704680E
:10211000206992B202EB42024FF0070C0CFA02F275
:1021200020EA020222611C6820690A8802EB42024E
:102130008D6805FA02F202432261BFE70C2A16D825
:102140001D68286B02EB8202233A1F2404FA02F274
:1021500020EA02022A631D68286B4A6802EB8202A9
:10216000233A0C8804FA02F202432A63C1E71D688D
:10217000E86A02EB8202413A1F2404FA02F220EAE2
:102180000202EA621D68E86A4A6802EB8202413A8A
:102190000C8804FA02F20243EA62AAE70A68122AE9
:1021A000ABD1194A506820F400005060506840F4E8
:1021B00080005060A1E70A681448824201D0112AC9
:1021C0009FD1114A506820F480005060506840F45C
:1021D0000000506009680D4A914292D10C4A126881
:1021E0000C49A1FB0212920C02EB820252000192F6
:1021F000019A002A85D0019A013A0192F8E702205B
:1022000082E700BF002001400023014012000010BF
:102210005C00002083DE1B43002807DB00F01F0268
:10222000400901239340024A42F82030704700BF22
:1022300000E100E0002808DB0901C9B200F16040BC
:1022400000F5614080F80013704700F00F000901AD
:10225000C9B2014B1954704714ED00E000B500F00D
:102260000700C0F1070CBCF1040F28BF4FF0040CAD
:10227000031D062B0FD9C31E4FF0FF3E0EFA0CF0C4
:1022800021EA000199400EFA03FE22EA0E0241EA19
:1022900002005DF804FB0023EEE70000074AD36864
:1022A00023F4E0631B041B0C000200F4E060034312
:1022B00043F0BF6343F40033D360704700ED00E0A8
:1022C00010B50446054BD868C0F30220FFF7C6FFDF
:1022D00001462046FFF7AEFF10BD00BF00ED00E055
:1022E00008B5FFF799FF08BD0138B0F1807F0BD228
:1022F0004FF0E0235861054AF02182F823100020B6
:10230000986107221A6170470120704700ED00E0D4
:1023100010B40368D9B210390A4AA2FB014212096B
:10232000094CA25CC2655F2907D96FF30903043326
:102330008365806D5DF8044B70476FF30903836517
:10234000F7E700BFABAAAAAA2CDC0008836A82695F
:1023500092B9012B0AD0022B02D00BB1002070479A
:10236000C36A13F0807F28D100207047C36AB3F19D
:10237000C07F24D000207047B2F5005F09D0022B47
:1023800025D9032B25D1C36A13F0807F23D10020E8
:102390007047032B03D8DFE803F01404140A00206D
:1023A0007047C36A13F0807F0DD100207047C36A65
:1023B000B3F1C07F09D00020704701207047012091
:1023C00070470120704701207047012070470120AD
:1023D00070470020704701207047000070B5044628
:1023E000FFF762FC002C5BD00546022384F83530F1
:1023F000002384F834302268136823F0010313604B
:1024000023681A6812F0010F0AD0FFF74DFC431B36
:10241000052BF5D920236365032084F8350070BDB2
:102420001A68204911406268A0680243E0680243CC
:102430002069024360690243A0690243E0690243E4
:10244000206A02430A43616A04291ED01A60266882
:10245000756925F00705636A1D43042B07D1A36A3C
:102460001D43E36A1BB12046FFF770FF90B9756109
:102470002046FFF74DFFE26D3F239340836000202D
:102480006065012384F83530C9E7E16A206B0143B8
:102490000A43DBE740236365012084F83500BEE78B
:1024A0000120BCE73F8010F070B50446866DFFF751
:1024B000FBFB94F83530DBB2022B06D0802363653A
:1024C000002384F83430012070BD0546226813686B
:1024D00023F0160313602268536923F080035361CD
:1024E000236CE3B12268136823F0080313602268A9
:1024F000136823F00103136023681B6813F0010FB6
:1025000011D0FFF7D1FB431B052BF5D920236365C1
:10251000032084F83500002384F83430D4E7A36C1A
:10252000002BDFD1E3E7E26D3F239340B36001234B
:1025300084F83530002084F83400C5E790F8353051
:10254000DBB2022B03D080234365012070470523B3
:1025500080F835300268136823F00103136000200F
:1025600070470000F0B583B0044600230193724B1E
:102570001D68724BA3FB0535AD0A876D3E68C26DC1
:1025800008239340334210D003681A6812F0040FF6
:102590000BD01A6822F004021A60C26D082393401F
:1025A000BB60436D43F001034365E26D012393403B
:1025B000334209D02268526912F0800F04D0BB6008
:1025C000636D43F002036365E26D0423934033427D
:1025D00009D02268126812F0020F04D0BB60636D4C
:1025E00043F004036365E26D10239340334224D02B
:1025F0002268126812F0080F1FD0BB6023681A68A7
:1026000012F4802F0DD01B6813F4002F04D1236C1B
:102610009BB12046984710E0A36C73B120469847C1
:102620000BE01A6812F4807F03D11A6822F00802C6
:102630001A60236C0BB120469847E26D202393402B
:10264000334255D02268126812F0100F50D0BB6090
:1026500094F83530DBB2052B0ED023681A6812F4DB
:10266000802F33D01B6813F4002F2AD1636C002B0A
:102670003ED0204698473BE02268136823F01603BB
:1026800013602268536923F080035361236CA3B164
:102690002268136823F008031360E26D3F23934020
:1026A000BB60012384F83530002384F83430236D77
:1026B000002B3FD0204698473CE0A36C002BE7D18D
:1026C000EBE7E36BA3B12046984711E01A6812F4D8
:1026D000807F09D11A6822F010021A60012384F861
:1026E0003530002384F83430E36B0BB12046984733
:1026F000636DFBB1636D13F0010F17D0052384F8F0
:1027000035302268136823F001031360019B013305
:102710000193AB4204D823681B6813F0010FF5D175
:10272000012384F83530002384F83430E36C0BB196
:102730002046984703B0F0BD5C000020B5814E1BD9
:1027400000230F2B00F2E38070B582B065E085684E
:102750004FEA430E032404FA0EF425EA0405CC687C
:1027600004FA0EF42C438460446824EA02044A68A4
:10277000C2F300129A40224342605CE0DC08083455
:1027800050F8242003F00705AD004FF00F0E0EFAAD
:1027900005FE22EA0E0E0A69AA4042EA0E0240F83D
:1027A00024205CE0062200E0002202FA0EF22A4316
:1027B0000234574D45F82420564A94686FEA0C02BB
:1027C00024EA0C054E6816F4801F01D04CEA04057B
:1027D000504CA560E46802EA04054E6816F4001F38
:1027E00001D04CEA04054B4CE560646802EA04053C
:1027F0004E6816F4003F01D04CEA0405454C656074
:10280000246822404D6815F4803F01D04CEA040250
:10281000404C226001330F2B77D801229A400C687C
:1028200004EA020C32EA0404F4D14C6804F0030414
:10283000013C012C8BD94A6802F00302032A09D01B
:10284000C4685D000322AA4024EA02048A68AA4000
:102850002243C2604A6802F00302022A8ED0046852
:102860004FEA430E032202FA0EF224EA02044A68F7
:1028700002F0030202FA0EF2224302604A6812F4E6
:10288000403FC7D000220192234A546C44F4804454
:102890005464526C02F480420192019A9C08A51C77
:1028A0001B4A52F8255003F0030E4FEA8E0E0F22FA
:1028B00002FA0EF225EA0205184A90423FF474AF7C
:1028C00002F58062904216D002F58062904214D0E8
:1028D00002F58062904212D002F58062904210D0E0
:1028E00002F5806290420ED002F5806290423FF481
:1028F00059AF072259E7012257E7022255E7032281
:1029000053E7042251E705224FE702B070BD70473C
:1029100000380140003C0140003802400000024005
:102920000369194201D001207047002070470AB1A5
:10293000816170470904816170470000002800F040
:102940009B8070B50D4604464F4B1B6803F00F0388
:102950008B4208D2CBB24C4A1370136803F00F03BA
:102960008B4240F08B80236813F0020F17D013F0D6
:10297000040F04D0454A936843F4E05393602368FE
:1029800013F0080F04D0414A936843F46043936006
:102990003E4A936823F0F003A1680B4393602368D9
:1029A00013F0010F32D06368012B21D09A1E012A47
:1029B00025D9364A126812F0020F61D033498A686D
:1029C00022F0030213438B60FFF76EF906462F4B8C
:1029D0009B6803F00C036268B3EB820F16D0FFF71D
:1029E00063F9801B41F288339842F0D9032042E01A
:1029F000264A126812F4003FE0D101203BE0234A4E
:102A0000126812F0007FD9D1012034E01E4B1B6800
:102A100003F00F03AB4207D9EAB21B4B1A701B68D5
:102A200003F00F03AB422DD1236813F0040F06D03F
:102A3000164A936823F4E053E1680B4393602368DC
:102A400013F0080F07D0114A936823F460432169FB
:102A500043EAC103936000F047F80C4B9B68C3F353
:102A600003130B4AD35CD8400A4B18600A4B186812
:102A7000FFF7CEF8002070BD012070470120FAE773
:102A80000120F8E70120F6E7003C02400038024050
:102A90001CDC00085C00002064000020014B18686A
:102AA000704700BF5C00002008B5FFF7F7FF044B3C
:102AB0009B68C3F38223034AD35CD84008BD00BFA0
:102AC0000038024014DC000808B5FFF7E7FF044BAC
:102AD0009B68C3F34233034AD35CD84008BD00BFB0
:102AE0000038024014DC000808B5464B9B6803F030
:102AF0000C03082B05D00C2B43D0042B7FD142486C
:102B000019E0404B5A6802F03F025B6813F4800FF3
:102B100012D03C4B5968C1F388113B480023A1FBFC
:102B20000001FEF781F9374B5B68C3F301430133C2
:102B30005B00B0FBF3F008BD324B5868C0F388105F
:102B40004FEA401CBCEB000C6EEB0E0E4FEA8E13EE
:102B500043EA9C634FEA8C11B1EB0C0163EB0E036B
:102B6000DB0043EA5173C90011EB000C43F1000391
:102B7000990200234FEA8C2041EA9C51FEF754F958
:102B8000D1E7204B5A6802F03F025B6813F4800FD4
:102B900010D01C4B5968C1F388111B480023A1FBBE
:102BA0000001FEF741F9174B5B68C3F30273B0FBFA
:102BB000F3F0C0E7134B5868C0F388104FEA401C8D
:102BC000BCEB000C6EEB0E0E4FEA8E1343EA9C63D7
:102BD0004FEA8C11B1EB0C0163EB0E03DB0043EA0F
:102BE0005173C90011EB000C43F10003990200235B
:102BF0004FEA8C2041EA9C51FEF716F9D3E70348CF
:102C000099E700BF0038024040787D010024F400BD
:102C1000002800F0018270B582B00446036813F00A
:102C2000010F41D0994B9B6803F00C03042B32D069
:102C3000964B9B6803F00C03082B27D0934B9B68A3
:102C400003F00C030C2B59D06368B3F5803F5BD0C5
:102C5000B3F5A02F5ED08D4B1A6822F480321A6033
:102C60001A6822F480221A606368002B5CD0FFF798
:102C70001BF80546854B1B6813F4003F14D1FFF782
:102C800013F8401B6428F5D90320CCE17F4B5B6827
:102C900013F4800FD2D07D4B1B6813F4003F03D098
:102CA0006368002B00F0BA81236813F0020F60D034
:102CB000764B9B6813F00C0F4AD0744B9B6803F063
:102CC0000C03082B3FD0714B9B6803F00C030C2BBB
:102CD00069D0E368002B75D06D4B01221A60FEF7B6
:102CE000E3FF0546694B1B6813F0020F61D1FEF745
:102CF000DBFF401B0228F5D9032094E1634B5B689E
:102D000013F4800FA0D0C6E7604A136843F4803301
:102D10001360A9E75D4B1A6842F480221A601A68B2
:102D200042F480321A609FE7FEF7BEFF0546574B1C
:102D30001B6813F4003FB7D0FEF7B6FF401B6428B2
:102D4000F5D903206FE1514B5B6813F4800FBAD1C2
:102D50004E4B1B6813F0020F03D0E368012B40F0C9
:102D60005F814A4A136823F0F803216943EAC103EB
:102D70001360236813F0080F49D06369002B33D028
:102D8000434B0122C3F8802EFEF78EFF05463F4BD2
:102D90005B6F13F0020F3AD1FEF786FF401B02284B
:102DA000F5D903203FE1394B5B6813F4800F90D1D4
:102DB000CEE7364A136823F0F803216943EAC103DA
:102DC0001360D6E7324B00221A60FEF76DFF05460E
:102DD0002E4B1B6813F0020FCBD0FEF765FF401B94
:102DE0000228F5D903201EE1294B0022C3F8802ECA
:102DF000FEF75AFF0546254B5B6F13F0020F06D016
:102E0000FEF752FF401B0228F5D903200BE123688F
:102E100013F0040F76D01D4B1B6C13F0805F33D181
:102E200000230193194B1A6C42F080521A641B6CF8
:102E300003F080530193019B0125164B1B6813F48B
:102E4000807F29D0A368012B3AD0052B3ED00F4BB1
:102E50001A6F22F001021A671A6F22F004021A6731
:102E6000A368002B3CD0FEF71FFF0646074B1B6FE5
:102E700013F0020F45D1FEF717FF801B41F2883394
:102E80009842F3D90320CEE00025D6E7003802406F
:102E900000004742007000406B4A136843F480739F
:102EA0001360FEF701FF0646674B1B6813F4807F33
:102EB000C8D1FEF7F9FE801B0228F5D90320B2E045
:102EC000624A136F43F001031367C9E75F4B1A6F40
:102ED00042F004021A671A6F42F001021A67BFE754
:102EE000FEF7E2FE0646594B1B6F13F0020F08D0A7
:102EF000FEF7DAFE801B41F288339842F3D90320B3
:102F000091E0EDB9A369002B00F08C804F4A9268E4
:102F100002F00C02082A54D0022B17D04C4B00228E
:102F20001A66FEF7C1FE0446484B1B6813F0007F8B
:102F300045D0FEF7B9FE001B0228F5D9032072E048
:102F4000424A136C23F080531364DBE7404B0022AA
:102F50001A66FEF7A9FE05463C4B1B6813F0007F7E
:102F600006D0FEF7A1FE401B0228F5D903205AE047
:102F7000E369226A1343626A43EA8213A26A52082F
:102F8000013A43EA0243E26A43EA0263226B43EAFC
:102F900002732E4A53602E4B01221A66FEF784FEFE
:102FA00004462A4B1B6813F0007F06D1FEF77CFE17
:102FB000001B0228F5D9032035E0002033E0002073
:102FC00031E0012B31D0214B5B6803F48001E269D1
:102FD00091422CD103F03F02216A8A4229D1616AD1
:102FE00047F6C0721A40B2EB811F24D103F440317E
:102FF000A26A5208013AB1EB024F1ED103F070628F
:10300000E16AB2EB016F1AD103F0E043226BB3EB3C
:10301000027F16D1002006E001207047012002E067
:10302000012000E0002002B070BD0120FBE701207C
:10303000F9E70120F7E70120F5E70120F3E7012098
:10304000F1E70120EFE700BF0070004000380240C8
:103050000000474230B4036A026A22F001020262B1
:103060004268846924F0730C0C6844EA0C0423F071
:10307000020C8B6843EA0C03114DA84203D005F5FE
:103080008065A84205D123F00803CD682B4323F0C7
:1030900004030B4DA84203D005F58065A84207D173
:1030A00022F440724D6945EA020C8A6942EA0C0238
:1030B000426084614A684263036230BC704700BF6B
:1030C0000000014030B4036A026A22F48072026296
:1030D0004268C46924F0730C0C6844EA0C0523F4BC
:1030E00000738C6843EA0423114CA04203D004F51A
:1030F0008064A04206D123F40063CC6843EA042331
:1031000023F480630A4CA04203D004F58064A042FB
:1031100007D122F440524C6942EA04128C6942EA17
:1031200004124260C5614A68C263036230BC7047E2
:103130000000014030B4036A026A22F48052026245
:103140004468C26922F4E6420D6842EA052223F48B
:1031500000538D6843EA0533094DA84203D005F5B5
:103160008065A84204D124F480444D6944EA851462
:103170004460C2614A680264036230BC704700BFA9
:103180000000014010B4036A046A24F001040462E0
:10319000846924F0F00C4CEA021223F00A030B437A
:1031A000826103625DF8044B704710B4036A046ADD
:1031B00024F010040462846924F4704C4CEA023256
:1031C00023F0A00343EA0113826103625DF8044B1C
:1031D0007047836823F070030B4343F00703836059
:1031E000704700000368344A904212D0B0F1804F1B
:1031F0000FD0A2F57C4290420BD002F58062904243
:1032000007D002F58062904203D002F578429042E6
:1032100003D123F070034A681343274A90422AD00F
:10322000B0F1804F27D0A2F57C42904223D002F526
:10323000806290421FD002F5806290421BD002F55E
:103240007842904217D002F57052904213D002F5A6
:10325000806290420FD002F5806290420BD0A2F5BE
:103260009832904207D002F58062904203D002F576
:103270008062904203D123F44073CA68134323F061
:1032800080034A69134303608B68C3620B688362DF
:10329000094B984203D003F58063984201D10B6932
:1032A000036301234361036913F0010F03D0036932
:1032B00023F00103036170470000014040B310B5E3
:1032C000044690F83D30F3B1022384F83D302146A6
:1032D00051F8040BFFF786FF012384F8463084F889
:1032E0003E3084F83F3084F8403084F8413084F830
:1032F000423084F8433084F8443084F8453084F810
:103300003D30002010BD80F83C30FEF787FADBE747
:103310000120704740B310B5044690F83D30F3B13A
:10332000022384F83D30214651F8040BFFF75AFF81
:10333000012384F8463084F83E3084F83F3084F826
:10334000403084F8413084F8423084F8433084F8C7
:10335000443084F8453084F83D30002010BD80F8BA
:103360003C30FEF745FADBE70120704730B4036AD2
:10337000026A22F0100202624468826922F4E64284
:103380000D6842EA052223F020038D6843EA051305
:10339000114DA84203D005F58065A84206D123F05F
:1033A0008003CD6843EA051323F040030A4DA84289
:1033B00003D005F58065A84207D124F440644D6927
:1033C00044EA85048D6944EA8504446082614A6860
:1033D0008263036230BC70470000014038B590F84A
:1033E0003C30012B66D004460D46012380F83C306A
:1033F0000C2A5AD8DFE802F0075959591B59595974
:103400003059595944000068FFF724FE2268936937
:1034100043F0080393612268936923F004039361E6
:103420002268936929690B43936100203EE000689C
:10343000FFF79CFF2268936943F40063936122685D
:10344000936923F48063936122689369296943EA4D
:1034500001239361002029E00068FFF733FE226812
:10346000D36943F00803D3612268D36923F00403CE
:10347000D3612268D36929690B43D361002015E029
:103480000068FFF757FE2268D36943F40063D361F5
:103490002268D36923F48063D3612268D3692969E0
:1034A00043EA0123D361002000E00120002384F8D7
:1034B0003C3038BD0220FCE710B4846824F47F4C13
:1034C00042EA03220A4342EA0C0282605DF8044B9E
:1034D000704790F83C30012B78D010B5044601239A
:1034E00080F83C30022380F83D300268936823F472
:1034F0007F4323F0770393600B68602B4CD023D875
:10350000402B54D011D8202B03D00AD80BB1102B4C
:1035100005D119462068FFF75CFE002028E0012055
:1035200026E0302BF5D0012022E0502B0AD1CA68CA
:1035300049680068FFF726FE50212068FFF749FE22
:10354000002015E0012013E0B3F5805F3AD0B3F519
:10355000005F14D0702B37D1CB684A688968006847
:10356000FFF7AAFF2268936843F077039360002077
:10357000012384F83D30002384F83C3010BDCB6833
:103580004A6889680068FFF797FF2268936843F4E8
:10359000804393600020EBE7CA6849680068FFF742
:1035A00004FE60212068FFF714FE0020E0E7CA68EF
:1035B00049680068FFF7E6FD40212068FFF709FE33
:1035C0000020D5E70020D3E70120D1E70220704793
:1035D00001F01F014FF0010C0CFA01FC036A23EA11
:1035E0000C030362036A8A401343036270470000BE
:1035F00010B504460846002942D194F83E30DBB2AB
:10360000013B18BF0123002B6ED1002851D10223AA
:1036100084F83E30012201462068FFF7D9FF236875
:10362000334A934203D002F58062934203D15A6C2D
:1036300042F400425A6423682D4A934249D0B3F1C0
:10364000804F46D0A2F57C42934242D002F5806280
:1036500093423ED002F5806293423AD002F578421E
:10366000934236D002F57052934232D0A2F5943292
:1036700093422ED01A6842F001021A60002032E014
:10368000042908D008290DD094F84130DBB2013B61
:1036900018BF0123B7E794F83F30DBB2013B18BFF6
:1036A0000123B0E794F84030DBB2013B18BF01239F
:1036B000A9E7042805D0082807D0022384F8413060
:1036C000A8E7022384F83F30A4E7022384F84030BF
:1036D000A0E79A6802F00702062A07D01A6842F0AB
:1036E00001021A60002010BD0120FCE70020FAE76B
:1036F0000000014090F83C20012A3DD010B4034660
:10370000012280F83C20022280F83D2002685068A7
:10371000946820F0700C086840EA0C0050601A6849
:10372000164882421AD0B2F1804F17D0A0F57C40E3
:10373000824213D000F5806082420FD000F5806095
:1037400082420BD000F57840824207D000F57050DD
:10375000824203D0A0F59430824204D124F0800448
:10376000496821439160012283F83D20002083F8BD
:103770003C005DF8044B7047022070470000014098
:10378000024690F83C30012B21D0012380F83C30D8
:10379000CB6823F440738868034323F4806348684C
:1037A000034323F400630868034323F48053086948
:1037B000034323F400534869034323F48043C96956
:1037C0000B4311684B64002082F83C0070470220D4
:1037D0007047026802F10C0353E8003F23F4907332
:1037E0000C3242E800310029F3D1026802F11403DF
:1037F00053E8003F23F00103143242E8003100296E
:10380000F3D1036B012B05D0202380F84230002335
:1038100003637047026802F10C0353E8003F23F092
:1038200010030C3242E800310029F3D1ECE790F8A4
:103830004130DBB2212B01D0022070478368B3F501
:10384000805F17D0036A5A1C02621A7803685A60B4
:10385000C38C9BB2013B9BB2C3844BB90268D36853
:1038600023F08003D3600268D36843F04003D36041
:10387000002070470369002BE4D1036A1B880268AB
:10388000C3F308035360036A02330362E0E70000F6
:1038900010B504460268136923F44053C1680B4312
:1038A0001361836802691A4343691A43C3691A435F
:1038B0000168CB6823F4164323F00C031343CB6059
:1038C0000268536923F4407381690B4353610368B1
:1038D000314A934206D002F58062934202D0FFF74C
:1038E000E3F801E0FFF7F0F8E369B3F5004F29D002
:1038F0000021031849411B1841F10001C90041EAA8
:103900005371DB00181863684FEA83024FEA937320
:1039100041F10001FDF788FA204AA2FB0031490974
:10392000642303FB11031B013233A2FB03235B0956
:1039300003F0F00202EB011203F00F0321681344BD
:103940008B6010BD0023021843EB0301121841F1F4
:103950000001C90041EA5271D200101841F1000182
:10396000626892185B41FDF75FFA0C4AA2FB0031D6
:103970004909642303FB1103DB003233A2FB032359
:103980005B095A0002F4F87202EB011203F007031C
:10399000216813448B60D4E7001001401F85EB5170
:1039A0002DE9F04383B005460E4617469946DDF8EB
:1039B00028802B681C6836EA04040CBF012400240C
:1039C000BC4228D1B8F1FF3FF3D0FEF76DF9A0EB70
:1039D0000900404523D8B8F1000F22D02B68DA68DF
:1039E00012F0040FE5D0802EE3D0402EE1D01A680B
:1039F00012F0080FDDD0002401941A6801925B6870
:103A00000193019B2846FFF7E4FE08236B6485F8C9
:103A10004040012000E0002003B0BDE8F083032017
:103A2000FAE70320F8E760B310B5044690F8413098
:103A300013B3242384F841302268D36823F400535D
:103A4000D3602046FFF724FF2268136923F49043D4
:103A500013612268536923F02A0353612268D368F3
:103A600043F40053D36000206064202384F8413085
:103A700084F84230606310BD80F84030FDF78CFF61
:103A8000D7E7012070472DE9F04182B01E4690F83B
:103A90004130DBB2202B56D104460D46904600291A
:103AA00055D00AB901204FE000234364212380F858
:103AB0004130FEF7F9F80746A4F82480A4F82680E0
:103AC000A368B3F5805F02D04FF0000814E02369CB
:103AD0002BB34FF000080FE0202384F8413003207F
:103AE00032E038F8023B2268C3F308035360E28CEB
:103AF00092B2013A92B2E284E38C9BB293B1009607
:103B00003B46002280212046FFF74AFF0028E3D1F0
:103B1000002DE6D015F8012B23685A60E7E7A84688
:103B20000025E9E700963B46002240212046FFF7AA
:103B300037FF18B9202384F8413005E0202384F8AA
:103B40004130032000E0022002B0BDE8F0810120F6
:103B5000FAE72DE9F04182B01E4690F84230DBB220
:103B6000202B59D104460D469046002958D00AB959
:103B7000012052E000234364222280F842200363A4
:103B8000FEF792F80746A4F82C80A4F82E80A368CC
:103B9000B3F5805F02D04FF000081CE0236913B139
:103BA0004FF0000817E0A846002514E0202384F811
:103BB0004230032031E023685B68C3F3080328F830
:103BC000023B03E023685B682B700135E28D92B203
:103BD000013A92B2E285E38D9BB2C3B100963B46B7
:103BE000002220212046FFF7DBFE0028DED1002D39
:103BF000E1D0A368B3F5805FE4D013B92369002B4B
:103C0000E0D023685B6803F07F032B70DDE720239F
:103C100084F84230002000E0022002B0BDE8F081CC
:103C20000120FAE7704708B50168CA6822F040022F
:103C3000CA60202280F84120FFF7F4FF002008BD71
:103C40007047704708B5806B0023C385C384FFF7B6
:103C5000F8FF08BD704790F84230DBB2222B69D1E3
:103C60008368B3F5805F4FD0826AB3F5805F04D07C
:103C7000002B56D10369002B53D103685B68137086
:103C8000836A01338362C38D9BB2013B9BB2C385C0
:103C9000002B51D100B583B00268D36823F0200314
:103CA000D3600268D36823F48073D36002685369D9
:103CB00023F001035361202380F842300023436343
:103CC000036B012B33D100230363026802F10C0361
:103CD00053E8003F23F010030C3242E80031002982
:103CE000F3D103681A6812F0100F06D00022019277
:103CF0001A6801925B680193019B818DFFF7AAFF0F
:103D0000002003B05DF804FB0269002AACD1826A8E
:103D100003685B68C3F308031380836A023383621A
:103D2000B1E703685B6803F07F031370A8E7FFF750
:103D300087FFE5E7022070470020704710B582B08A
:103D4000044602681368D068516913F00F0F09D157
:103D500013F0200F0CD010F0200F09D02046FFF7F1
:103D60007AFF16E011F0010115D110F4907F12D105
:103D7000216B012979D013F0800F03D010F0800F50
:103D800040F0148113F0400F03D010F0400F40F0CA
:103D9000118102B010BD13F0010F06D010F4807F26
:103DA00003D0626C42F00102626413F0040F04D08D
:103DB00019B1626C42F00202626413F0020F04D087
:103DC00019B1626C42F00402626413F0080F07D06C
:103DD00010F0200F00D119B1626C42F00802626449
:103DE000626C002AD5D013F0200F02D010F0200F03
:103DF00029D123685B6903F04003626C12F0080F5D
:103E000000D163B32046FFF7E4FC23685B6913F03D
:103E1000400F20D0226802F1140353E8003F23F042
:103E20004003143242E800310029F3D1E36B73B14F
:103E3000624A1A65E06BFEF781FB0028A9D0E06BAF
:103E4000036D9847A5E72046FFF705FFD1E7204619
:103E5000FFF7F7FE9DE72046FFF7F3FE99E72046C0
:103E6000FFF7EFFE0023636493E713F0100F82D097
:103E700010F0100F3FF47FAF0023019313680193FC
:103E800053680193019B536913F0400F52D0E26BCA
:103E900013685B689BB2002B3FF47BAFA18D994206
:103EA0007FF677AFE385D369B3F5807F37D022689B
:103EB00002F10C0353E8003F23F480730C3242E814
:103EC00000310029F3D1226802F1140353E8003FC6
:103ED00023F00103143242E800310029F3D12268B3
:103EE00002F1140353E8003F23F04003143242E888
:103EF00000310029F3D1202384F8423000232363CA
:103F0000226802F10C0353E8003F23F010030C3247
:103F100042E800310029F3D1E06BFEF7C5FA022335
:103F20006363A18DE38D9BB2C91A89B22046FFF766
:103F300091FE2EE7A18DE38D9BB2C91A89B2E38D64
:103F40009BB2002B3FF425AF00293FF422AF22683B
:103F500002F10C0353E8003F23F490730C3242E863
:103F600000300028F3D1226802F1140353E8003F27
:103F700023F00103143242E800300028F3D120235B
:103F800084F8423000232363226802F10C0353E8D3
:103F9000003F23F010030C3242E800300028F3D138
:103FA000022363632046FFF755FEF2E62046FFF743
:103FB0003EFCEEE62046FFF736FEEAE6453C00080A
:103FC000DFF834D00D480E490E4A002302E0D458E1
:103FD000C4500433C4188C42F9D30B4A0B4C002351
:103FE00001E013600432A242FBD3FDF707FEFDF7A8
:103FF000B9F8FDF79FFB7047000002200000002089
:10400000EC00002078DD0008F0000020F807002018
:10401000FEE700002DE9F04F89B005460E469346B5
:104020001F46DDF8488000F1180393E803008DE88F
:10403000030005F110030CCB284605F086FC002890
:1040400059D1002F5FDBB8F1000F04D0D8F80C3045
:104050000133C8F80C30002E5ED0337F33B9336A99
:10406000726A13EB0B039B4642EB0707CDF808B0CF
:10407000039705F1180393E803008DE8030005F1A9
:1040800010030CCB04A805F063FAD6F82890D6F8F4
:104090002CA0284605F070FC0446C0F81C80866100
:1040A00096F83030002B3CD1B9F1010F7AF10003C2
:1040B00042DB337F002B4AD1B76BF26BB2F1004F7A
:1040C00008BF002F43D017EB090742EB0A09049BF6
:1040D000BB42059B73EB090339DA96F84830012B94
:1040E00000F09180022B00F097800497CDF8149097
:1040F000002306932BE0404606F070FA5F4807F075
:10410000D1F8002051E05A463B465D4807F0CAF816
:104110004FF0000B5F4696E7404606F05FFA00203E
:1041200043E005F06BFA10EB0B0047EB010704903E
:10413000059700230693B7E708AB13E90F0084E85F
:104140000F002146286B06F0DCFF00283CD105F16A
:1041500010030FCB8DE80F0008AB13E90F0005F03B
:10416000D4F910B9069B0133069304AF97E80F000A
:1041700084E80F0008AB13E903008DE8030097E81B
:104180000C00284605F0E1FB00286BD1383608AB5F
:1041900013E90F0086E80F002146286B06F0ADFFFB
:1041A000E86D431CEB65002B65DB09B0BDE8F08FC3
:1041B000069B0133069308AB13E90F0084E80F0058
:1041C0002146286B06F09DFF0028F1D108AB13E9CA
:1041D00003008DE8030004AB0CCB284605F0B5FBCB
:1041E00028B12146284605F06FFC0020DDE738366F
:1041F00008AB13E90F0086E80F002146286B06F094
:104200007CFF0020D1E7404606F0E8F92146284629
:1042100005F05AFC0020C8E7284605F0ADFB8246B1
:10422000866106F138030FCB8AE80F005146286BF0
:1042300006F067FF60B1414605F000FD21462846C3
:1042400005F042FC5146284605F03EFC0020ACE754
:104250005146284605F038FC0497CDF81490002309
:10426000069374E7404606F0B9F92146284605F062
:104270002BFC002099E70123EB6596E76CD2000840
:1042800094D2000810B483B0046F0094436F01937C
:10429000002307E054F82320916A054A02EB8302C9
:1042A00011600133052BF5DD03B05DF8044B704759
:1042B00064030020F0B589B00024039404940594AD
:1042C0000694079401941B4B1A6B42F004021A6384
:1042D0001A6B02F004020192019A02941A6B42F0E6
:1042E00001021A631B6B03F001030293029B124F3E
:1042F000224620213846FEF71AFB104D22464FF485
:1043000040412846FEF713FB202303930126049621
:104310000594069403A93846FEF712FA4FF4404379
:10432000039304960594069403A92846FEF708FA19
:1043300009B0F0BD00380240000002400008024011
:1043400008B5FFF7B7FF08BD30B583B0456A0095E3
:10435000836A0193002400E00134052C14DC55F835
:1043600024200A4B03EB84031B68936255F8240056
:1043700006F01CFB55F82400C368002BECD001228A
:10438000816A06F056F9E7E703B030BD7C030020F0
:10439000F0B585B0C76A0097036B0193466B029630
:1043A000836B0393002400E00134052C23DCA5007B
:1043B00057F82430002283F8282057F8240006F00C
:1043C000F5FA57F82400C3681BB10122816A06F090
:1043D00030F97259094B03EB84031B6893627059DF
:1043E00006F0E4FA7059C368002BDDD00122816A1F
:1043F00006F01FF9D8E705B0F0BD00BF6403002048
:1044000070B5044600F1400500F5926600220123D4
:1044100001E000230132052A0FDC002BF9D0174BF5
:1044200003EB8203D3ED007AF5EE407AF1EE10FA59
:1044300001D00023EEE70123ECE7E3B970BD104A99
:1044400002EB8302002111600133052BF7DD01230C
:1044500085F82830284606F0A9FAEB6823B1012236
:10446000A96A284606F0E5F8A661012323770548E6
:1044700008F020FBE2E70023E7E700BF6403002029
:104480007C030020DCD2000870B584B00646C56A03
:104490000095036B0193446B0294836B0393016A51
:1044A0003C4808F09FFAA36800229A62A06806F0D0
:1044B0007DFAA068C3681BB10122816A06F0B9F8D1
:1044C000E36800229A62E06806F070FAE068C36868
:1044D0001BB10122816A06F0ACF8236900229A62BE
:1044E000206906F063FA2069C3681BB10122816A62
:1044F00006F09FF8636900229A62606906F056FA36
:104500006069C3681BB10122816A06F092F8636892
:1045100000229A62606806F049FA6068C3681BB1BD
:104520000122816A06F085F8336A33B901233362C8
:10453000194B00221A60012407E000233362164B56
:104540004FF081421A60F6E70134052C12DC55F871
:104550002430002283F8282055F8240006F026FA9B
:1045600055F82400C368002BEED00122816A06F0C2
:1045700060F8E9E72B68012283F82820286806F014
:1045800015FA2868C3681BB10122816A06F051F848
:1045900004B070BDF8D200087C03002000000000C9
:1045A000F8B54FF4956005F047F96FF00102C2636A
:1045B000C266C0F8D02000F5FC71024642F8C81F60
:1045C000C0F88C209FED6A7B80ED2C7B0022C0F828
:1045D000B8200121C0F89010C0F8E020684CC0F865
:1045E000D840C0F8DC00C0F81C21C0F82021654C80
:1045F000C0F82C41C0F83021C0F84011624DC0F81D
:104600003851C0F83C01C0F87C21C0F88021C0F8C6
:104610008C41C0F890210226C0F8A0615B4DC0F823
:104620009851C0F89C01C0F8DC21C0F8E021C0F826
:10463000EC4100F58F65C0F8F0510327C0F8007217
:10464000534FC0F8F871C0F8FC01C0F83C22C0F824
:104650004022C0F84C42C0F850520427C0F86072A3
:104660004C4FC0F85872C0F85C02C0F89C22C0F8E9
:10467000A022C0F8AC42C0F8B0520527C0F8C07202
:10468000454FC0F8B872C0F8BC02C0F8FC22C0F8B0
:104690000023C0F80C4300F59264C0F8104380ED8D
:1046A000D47BC0F8582300F59C74C0F8684300F52B
:1046B0001674C0F86C4300F55A74C0F82C43C0F867
:1046C000306380F8341380EDEA7BC0F8B02300F546
:1046D0002E74C0F8C04300F57074C0F88443C0F86D
:1046E000881380F88C1300F5806484ED007BC0F89B
:1046F000082400F5CC74C0F8184400F58364C0F8B1
:10470000DC43C0F8E01380F8E41300F1D804C0F8EB
:10471000704400F58C6404ED027BC0F8602400F561
:104720008E64C0F83444C0F8381480F83C2400F19A
:104730000C01C0F87814194CC0F87C4400F5906462
:104740009FED0D7B84ED007B80F88824C0F89014E9
:104750001349C0F8941400F5946101ED027B80F8D0
:10476000A024C2600561456182610277F8BD00BF87
:1047700000000000000000800000000000000000B9
:10478000414300080CD300084943000801440008D5
:1047900085420008914300088944000810D30008AE
:1047A00018D300080E4B1B680E4A42F82300132B47
:1047B00005DC01330A4A136000231A4606E0002391
:1047C000F8E7084951F823100A440133132BF8DDA8
:1047D000054880FB0230D217C2EBE000704700BFF3
:1047E00094030020980300206766666608B54FF0C2
:1047F000FF33012202490348FFF745F908BD00BF16
:10480000AC0000206C04002008B50A480A4B036085
:104810004FF46123436000238360C36003610C2273
:1048200042618361C361FFF7FEF800B908BD07F07C
:10483000E7F9FBE76C0400200048004000B585B0B4
:10484000002300930193029303931448144A0260D7
:10485000436083600361037680F82030C362114AAD
:104860008262C3600122C26180F830304261FDF78C
:10487000CFFA68B90E23009301230193002302931A
:1048800069460648FDF7F2FB28B905B05DF804FB60
:1048900007F0B6F9EEE707F0B3F9F6E724040020D5
:1048A000002001400100000F08B5FFF7ADFFFFF742
:1048B000C5FF4FF0FF33012202490348FFF7E3F839
:1048C00008BD00BFAC0000206C04002030B583B0F0
:1048D0000D468DF80700144C4FF0FF3301220DF107
:1048E00007012046FFF7CFF84FF0FF330722294694
:1048F0002046FFF72EF92C786B7804EB0324AB7875
:1049000004EB0344EB7804EB0364084B1B68322B85
:1049100002DC204603B030BD22469DF80710044853
:1049200008F060F8F5E700BF6C04002020040020C8
:104930001CD3000800000000F8B52DED028B456E79
:10494000046FB34E3046FDF78FFA4FF0FF3130461B
:10495000FDF72CFB3046FDF785FB80B2FFF722FF09
:104960000646B0F5006F01DDA0F58056A6F525706E
:1049700007EE900AF8EEE77A17EE900AFBF78CFD47
:10498000A1A3D3E90023FBF7DFFDFCF79FF807465F
:10499000A04BD3ED007A37EEA78A9F499F4B18783A
:1049A000FFF794FF07EE900AF8EEE77A9C4BD3ED01
:1049B000006A87EEA67A2B6868EE077AC3ED0A7A5A
:1049C000286805F0F3FF2868C3681BB10122816ADB
:1049D00005F02FFE8F4BD3ED007A37EEA78A914971
:1049E0008E4B5878FFF772FF07EE900AF8EEE77AE1
:1049F0008B4BD3ED016A87EEA67A6B6868EE077A77
:104A0000C3ED0A7A686805F0D1FF6868C3681BB116
:104A10000122816A05F00DFE7E4BD3ED007A37EE60
:104A2000A78A81497D4B9878FFF750FF07EE900ADF
:104A3000F8EEE77A7A4BD3ED026A87EEA67AAB6896
:104A400068EE077AC3ED0A7AA86805F0AFFFA86898
:104A5000C3681BB10122816A05F0EBFDEB689F6220
:104A6000E86805F0A3FFE868C3681BB10122816A0A
:104A700005F0DFFD6D4B1B68322B00F3F080654BBA
:104A800093ED008AF8EE007A28EE278A6849634B96
:104A90001879FFF71BFF07EE900AF8EEE77A604BF4
:104AA000D3ED046A87EEA67A2B6928EE078A83ED98
:104AB0000A8A286905F07AFF2869C3681BB10122B8
:104AC000816A05F0B6FD534BD3ED007A37EEA78A25
:104AD0005849524B5879FFF7F9FE07EE900AF8EE65
:104AE000E77A4F4BD3ED056A87EEA67A6B6968EEDD
:104AF000077AC3ED0A7A686905F058FF6869C368E8
:104B00001BB10122816A05F094FD424BD3ED007A7E
:104B100037EEA78A4849494B1878FFF7D7FE07EECA
:104B2000900AF8EEE77A464BD3ED006A87EEA67A54
:104B3000236868EE077AC3ED0A7A206805F036FF2D
:104B40002068C3681BB10122816A05F072FD314BF8
:104B5000D3ED007A37EEA78A3A49384B5878FFF7F9
:104B6000B5FE07EE900AF8EEE77A354BD3ED016A11
:104B700087EEA67A636868EE077AC3ED0A7A606802
:104B800005F014FF6068C3681BB10122816A05F05B
:104B900050FDA36800229A62A06805F007FFA06894
:104BA000C3681BB10122816A05F043FDE36800225E
:104BB0009A62E06805F0FAFEE068C3681BB1012262
:104BC000816A05F036FD236900229A62206905F0AA
:104BD000EDFE2069C3681BB10122816A05F029FD41
:104BE000636900229A62606905F0E0FE6069C3684B
:104BF0001BB10122816A05F01CFDFDF755F80B4B36
:104C00001B68322B20E000BFBA490C022B87B63F4D
:104C1000240400206800002018040020A4000020C4
:104C2000840000201004002008040020200400203C
:104C300000040020F8030020F00300209C00002066
:104C40006C000020E80300200EDC0B4B1B68322BAD
:104C50000EDD094B00221A60BDEC028BF8BD314617
:104C6000064807F0BFFE0AE7054807F023FFECE718
:104C70000133014A1360EFE72004002028D3000825
:104C800034D300080000000038B54FF4287004F059
:104C9000D3FD00F13002826240650022C0F880201E
:104CA00031498167C067C0F8BC20C0F8C0202F4CD4
:104CB000C0F8CC40C0F8D0200121C0F8E0102C4D45
:104CC000C0F8D850C0F8DC00C0F81C21C0F8202182
:104CD000C0F82C41C0F830210225C0F84051254DC4
:104CE000C0F83851C0F83C01C0F87C21C0F88021E0
:104CF000C0F88C41C0F890219FED197B80ED747B4A
:104D0000C0F8D82100F59C74C0F8E84100F5F474AF
:104D1000C0F8AC41C0F8B01180F8B41100F17804CB
:104D2000C0F8404280ED8A7BC0F8302200F5107454
:104D3000C0F80442C0F8081280F80C2280EDA07B75
:104D4000C0F8882200F1D802C0F8982200F5267237
:104D5000C0F85C22C0F86012C0F8481238BD00BF2D
:104D60000000000000000080A94800080CD30008E3
:104D7000ED47000839490008F0B4D0F8B861D0F820
:104D80002052D0F88842D0F8F012D0F85823036BA4
:104D9000D0F85071D7F828C0C3F800C0036BD6F81C
:104DA00028C0C3F804C0036BD5F828C0C3F808C0F6
:104DB000036BD4F828C0C3F80CC0036B896A19616F
:104DC000036B926A5A61F0BC704730B4456BC46E95
:104DD00000230DE055F82310826A91F82810D15471
:104DE00054F82310C26A02EB8302896A116001330E
:104DF000052BEFDD30BC70472DE9F04387B004464A
:104E000000F56F76049600F57A75059500F58369CF
:104E1000CDF8049000F24448CDF8088000F58E6784
:104E200003970023C9F82830484605F0BFFDD4F8A1
:104E300024342BB10122D4F84014484605F0F9FB84
:104E4000A36A1B78002B43D0236B1B68C8F828305B
:104E5000404605F0ABFDD8F80C302BB10122D8F854
:104E60002810404605F0E5FBA36A5B78002B32D0A2
:104E7000236B5B68BB62384605F098FDFB6823B185
:104E80000122B96A384605F0D4FBA36A9B782BB39C
:104E9000236B9B68B362304605F088FDF36823B14D
:104EA0000122B16A304605F0C4FBA36ADB78C3B1C6
:104EB000236BDB68AB62284605F078FDEB6823B115
:104EC0000122A96A284605F0B4FB07B0BDE8F083CB
:104ED000E36A1B68BAE7E36A5B68CBE7E36A9B684F
:104EE000D8E7E36ADB68E5E770B54FF4F76004F0F4
:104EF000A3FC0066C0F89800C0F8D000C0F8080114
:104F0000C0F840016FF00104C0F8B04100F59465AD
:104F1000C0F8A85100F5D472C0F86C219FED687BF1
:104F200080ED647B0022C0F898210121C0F8701147
:104F3000C0F81842C0F8105200F50476C0F8D461E9
:104F400080ED7E7BC0F80022C0F8D811C0F8804206
:104F5000C0F8785200F51E76C0F83C6280ED987B70
:104F6000C0F86822C0F84012C0F8E842C0F8E05229
:104F700000F53876C0F8A46280EDB27BC0F8D0228C
:104F8000C0F8A812C0F85043C0F8485300F5527654
:104F9000C0F80C6380EDCC7BC0F83823C0F8101348
:104FA000C0F8B843C0F8B05300F56C75C0F874533E
:104FB00080EDE67BC0F8A023C0F87813C0F8144455
:104FC000C0F89C44C0F8A8243F4CC0F8A044C0F8E6
:104FD000A404C0F8E424C0F8E8243C4CC0F8F4442D
:104FE000C0F8F824C0F80815394DC0F80055C0F8CD
:104FF0000405C0F84425C0F84825C0F85445C0F859
:1050000058250225C0F86855324DC0F86055C0F8E3
:105010006405C0F8A425C0F8A825C0F8B445C0F8B8
:10502000B82500F5C06404ED027BC0F8002600F549
:10503000AC64C0F8104600F5C264C0F8D445C0F8AE
:10504000D81580F8DC1500F5CA6484ED007BC0F843
:10505000582600F5A064C0F8684600F5CD65C0F894
:105060002C56C0F83016C0F8181600F5D66505EDB8
:10507000027BC0F8B026C0F8C04600F5D864C0F87E
:105080008446C0F888160421C0F8701600F5E06464
:1050900084ED007BC0F80827C0F8C81600F5EA6464
:1050A00084ED007BC0F85827C0F8181700F5F464A9
:1050B00084ED007BC0F8A827C0F8681770BD00BF5A
:1050C0000000000000000080794D00080CD30008AB
:1050D000CB4D0008F94D000810B596B0002412948D
:1050E0001394149415941094119409940A940B94A5
:1050F0000C940D940E940F942022214601A8FCF7E5
:1051000029F82C482C4B0360446084604FF6FF73F1
:10511000C360046144618461FEF7D0F8002837D190
:105120004FF48053129312A92248FEF7D2F90028B7
:1051300031D12048FEF7EEF800282FD1002310933C
:10514000119310A91B48FEF7D5FA50BB60230993B1
:1051500000220A920B920C920D920E920F9209A9C4
:105160001448FEF73BF9F8B9002301930293039327
:10517000049305934FF400520692089301A90D4839
:10518000FEF7FEFA98B90B48FCF784FB16B010BD89
:1051900006F036FDC4E706F033FDCAE706F030FD41
:1051A000CCE706F02DFDD1E706F02AFDDCE706F09E
:1051B00027FDE8E7FC0400200004014000B589B0A9
:1051C000002301930293039304930593069307939B
:1051D0001548164A0260436083604FF6FF72C26052
:1051E00003618361FEF76AF8A0B90F48FEF792F8F1
:1051F00098B960230193002202920392059201A9BB
:105200000948FEF7EBF858B90748FCF743FB09B02B
:105210005DF804FB06F0F4FCE7E706F0F1FCE8E7D4
:1052200006F0EEFCF0E700BFB404002000200040D0
:1052300038B5056A446DD5ED0A7AF5EEC07AF1EE1F
:1052400010FA58D4012220215048FDF770FBD5ED0B
:105250000A7A9FED4F7A37EE677ADFED4E7A27EEC6
:10526000277ADFED4D6AC7EE267AFDEEE77A17EE74
:10527000903A03F2A463494AD36203EBD3735B1001
:105280005363D4ED0A7AF5EEC07AF1EE10FA4CD4FD
:1052900001224FF400513D48FDF749FBD4ED0A7A55
:1052A0009FED3B7A37EE677ADFED3A7A27EE277A81
:1052B000DFED396AC7EE267AFDEEE77A17EE903A0F
:1052C00003F5AF63364AD36203EBD3735B105363CA
:1052D000D5ED0A7AB7EE007AF4EEC77AF1EE10FA5D
:1052E0003ED4D4ED0A7AB7EE007AF4EEC77AF1EE46
:1052F00010FA40D438BD002220212448FDF717FBC6
:1053000095ED0A7ADFED227A37EE277ADFED217A02
:1053100027EE277ADFED206AC7EE267AFDEEE77AE0
:1053200017EE903A03F2A463A5E700224FF4005170
:105330001648FDF7FCFA94ED0A7ADFED157A37EEA0
:10534000277ADFED147A27EE277ADFED136AC7EEAE
:10535000267AFDEEE77A17EE903A03F5AF63B1E7F0
:10536000BFEE007AF4EEC77AF1EE10FAB9DD0B4B1E
:1053700000225A63B5E7BFEE007AF4EEC77AF1EE89
:1053800010FAB7DD064B00225A63B3E7000802406B
:105390000000CA4200409C450000C8420004014091
:1053A0000020004030B587B000240194029403949B
:1053B0000494059400940F4B1A6B42F004021A6394
:1053C0001B6B03F004030093009B0B4D224642F23B
:1053D00020012846FDF7ABFA42F220030193012396
:1053E00002930394049401A92846FDF7A9F907B094
:1053F00030BD00BF003802400008024008B5FFF78A
:105400006BFEFFF7DBFEFFF7CDFF00210348FEF741
:10541000EFF800210248FEF7EBF808BDFC0400207D
:10542000B40400200000000038B54FF4147004F0FC
:1054300003FA00F128020262C06400F15C024265D6
:10544000C0F880000022C0F890202B49C0F88810D6
:10545000C0F88C00C0F8CC20C0F8D020274CC0F891
:10546000DC40C0F8E0200121C0F8F010244DC0F865
:10547000E850C0F8EC00C0F82C21C0F83021C0F88A
:105480003C41C0F8402100F18804C0F898419FEDEC
:10549000187B80ED607BC0F8882100F5CC74C0F8E3
:1054A0005C41C0F8601180F8642180ED767BC0F823
:1054B000E02100F1E805C0F8F05100F5F874C0F8FB
:1054C000B441C0F8B8110424C0F8A04180ED8C7B31
:1054D000C0F83822C0F8485200F51272C0F80C2209
:1054E000C0F81012C0F8F84138BD00BFAFF300801B
:1054F0000000000000000080FD5300080CD30008ED
:105500003152000800B58FB000230A930B930C931F
:105510000D930893099301930293039304930593C6
:10552000069307932B484FF08042026043608360EC
:105530004FF47A72C260036180238361FDF7BEFE7F
:10554000002832D14FF480530A930AA92148FDF76D
:10555000C0FF68BB1F48FDF7DDFE60BB002308935A
:10556000099308A91B48FEF7C5F838BB60230193CF
:10557000002302930393059304220DEB02011548C7
:10558000FDF72CFFE8B9082201A91248FDF726FF14
:10559000D0B90C2201A90F48FDF720FFB8B90D487A
:1055A000FCF778F90FB05DF804FB06F029FBC9E7BA
:1055B00006F026FBCEE706F023FBCFE706F020FB44
:1055C000D4E706F01DFBDEE706F01AFBE1E706F084
:1055D00017FBE4E78C05002000B58FB000230A9389
:1055E0000B930C930D9308930993019302930393E8
:1055F00004930593069307932548264A0260436067
:1056000083604FF47A72C260036180238361FDF787
:1056100055FE58BB4FF480530A930AA91C48FDF766
:1056200058FF30BB1A48FDF775FE28BB00230893CE
:10563000099308A91648FEF75DF800BB60230193A3
:10564000002202920392059201A91148FDF7C6FEBD
:10565000C0B904220DEB02010D48FDF7BFFEA0B951
:105660000B48FCF717F90FB05DF804FB06F0C8FA19
:10567000D0E706F0C5FAD5E706F0C2FAD6E706F09D
:10568000BFFADBE706F0BCFAE3E706F0B9FAE7E7B2
:105690004405002000040040F0B589B000240394C4
:1056A00004940594069407940194204B1A6B42F0DD
:1056B00001021A631A6B02F001020192019A02942C
:1056C0001A6B42F002021A631B6B03F0020302938F
:1056D000029B174F224641F610013846FDF727F985
:1056E000144D224607212846FDF721F941F6100303
:1056F0000393012604960594069403A93846FDF702
:105700001FF80723039304960594069403A92846DB
:10571000FDF716F80C230393049405940DEB030195
:105720000548FDF70DF809B0F0BD00BF0038024094
:1057300000000240000402400008024010B5FFF7DC
:10574000E1FEFFF749FFFFF7A7FF0F4C00224FF4E0
:1057500000612046FDF7EBF8002210212046FDF7FE
:10576000E6F8002202210948FDF7E1F8082108487F
:10577000FDF73EFF074C00212046FDF739FF0421CD
:105780002046FDF735FF10BD000002400004024036
:105790008C05002044050020F8B5456DD0F8884000
:1057A000D5ED0A7AF5EEC07AF1EE10FA6C4EACBF88
:1057B0000122002201213046FDF7B9F8D4ED0A7A22
:1057C000F5EEC07AF1EE10FAACBF012200220421FE
:1057D0003046FDF7ACF8A86AFAF75EFE06460F46BB
:1057E00057A3D3E90023FBF73FF938B956A3D3E910
:1057F000002330463946FBF719F930B108215948E2
:10580000FDF78EF808B3012200E00022102156486F
:10581000FDF78DF8A06AFAF73FFE06460F4648A34B
:10582000D3E90023FBF720F938B947A3D3E90023D4
:1058300030463946FBF7FAF848B108214948FDF7E8
:105840006FF8002851D0012202E00022DEE700229A
:1058500002214348FDF76BF800224FF400614248F3
:10586000FDF765F8D5ED0A7AF5EEC07AF1EE10FA9B
:105870003DD49FED3E7A67EE877A17EE900AFAF7ED
:105880000BFE33A3D3E90023FAF75EFE0022384B68
:10589000FAF784FFFBF7F2F8B0F5FA7FA8BF4FF4F0
:1058A000FA70344B5863D4ED0A7AF5EEC07AF1EE13
:1058B00010FA30D49FED2D7A67EE877A17EE900AB2
:1058C000FAF7EAFD24A3D3E90023FAF73DFE00220C
:1058D000274BFAF763FFFBF7D1F8B0F5D27FA8BFEB
:1058E0004FF4D270234B9863F8BD0022B0E79FEDD0
:1058F0001F7A67EEC77A17EE900AFAF7CDFD14A368
:10590000D3E90023FAF720FE0022194BFAF746FFED
:10591000FBF7B4F8C0E79FED157A67EEC77A17EE8C
:10592000900AFAF7B9FD0CA3D3E90023FAF70CFEAD
:1059300000220F4BFAF732FFFBF7A0F8CDE700BFCC
:105940007B14AE47E17A843F7B14AE47E17A84BF93
:105950009A9999999999E93FCDCCCCCCCCCCE43F9C
:1059600000040240000802400000024000007A44A7
:10597000000059400004004070B54FF4387003F047
:105980005BFF00F128020262C06400F15C02426524
:10599000C0F8800000F19002C0F88820C0F8B40080
:1059A0000022C0F8C8203249C0F8C010C0F8C400B6
:1059B000C0F80421C0F808212E4CC0F81441C0F8EA
:1059C00018210121C0F828112B4DC0F82051C0F832
:1059D0002401C0F86421C0F86821C0F87441C0F8FF
:1059E000782100F1C004C0F8D0419FED1F7B80ED0D
:1059F0006E7BC0F8C02100F5E874C0F89441C0F88F
:105A0000981180F89C2180ED847BC0F8182200F565
:105A10009075C0F8285200F50A74C0F8EC41C0F83F
:105A2000F0110424C0F8D84180ED9A7BC0F87022B0
:105A3000C0F8805200F52076C0F84462C0F84812E1
:105A4000C0F8304280EDB07BC0F8C822C0F8D85210
:105A500000F53672C0F89C22C0F8A012C0F8884247
:105A600070BD00BFAFF300800000000000000080A8
:105A70003D5700080CD300089957000838B5044674
:105A8000D0F88430D0F8B850D3ED0A7A90ED107A7F
:105A900037EEC77AC0ED107AD0ED0D6AF4EEE67AF3
:105AA000F1EE10FA08DCF1EE666AF4EEE67AF1EE59
:105AB00010FA12D5012300E00123DFED3B6AB4EEBA
:105AC000E67AF1EE10FA0ADCDFED386AB4EEE67A37
:105AD000F1EE10FA14D5012202E00023EDE70122D5
